:020000040000FA
:100000000C9463000C948B000C948B000C947E0871
:100010000C947E080C947E080C948B000C948B003E
:100020000C948B000C948B000C948B000C94150A90
:100030000C948B000C948B000C948B000C948B0014
:100040000C94DC070C948B000C944C080C94260840
:100050000C948B000C948B000C948B000C948B00F4
:100060000C94F6080C948B0000000000240027007C
:100070002A0000000008000201000003040700003D
:1000800000000000000000000000230026002900FE
:1000900000000000250028002B00040404040404D0
:1000A0000404020202020202030303030303010227
:1000B00004081020408001020408102001020408F6
:1000C0001020D10AEE0E11241FBECFEFD8E0DEBF04
:1000D000CDBF11E0A0E0B1E0E8E1FFE102C0059092
:1000E0000D92AE3AB107D9F723E0AEEAB1E001C014
:1000F0001D92AE3BB207E1F710E0C2E6D0E004C0CB
:100100002197FE010E94790FC136D107C9F70E94DD
:10011000C20B0C947F0F0C940000089508958F92E9
:100120009F92AF92BF92FF920F931F93CF93DF9353
:10013000F090BB032BE02F1508F44CC02091BD03B9
:1001400008E512E0021B110927FD1395000F111F8E
:10015000000F111F2091BC03C8E8D0E0C21BD109D9
:1001600027FDD395CC0FDD1FCC0FDD1F4E010D2ECB
:10017000000CAA08BB089801012E000C440B550B7B
:10018000281939094A095B09DC010E94340F24EB64
:1001900030E040E050E00E940A0F820E931EA41E41
:1001A000B51E8C169D062CF0E801801691060CF405
:1001B000E4012297CC0FDD1F2FB7F8948F2D90E02C
:1001C000FC01EE0FFF1FE80FF91FE559FC4FD2832A
:1001D000C1832FBFDF91CF911F910F91FF90BF90EF
:1001E000AF909F908F900895833081F028F48130F4
:1001F00099F08230A9F008958730A9F08830C9F0CD
:100200008430B1F4809180008F7D03C080918000A4
:100210008F7780938000089584B58F7784BD08958B
:1002200084B58F7DFBCF8091B0008F778093B00035
:1002300008958091B0008F7DF9CFCF93DF93282F61
:1002400030E0F901EE58FF4F8491F901E255FF4F7C
:10025000D491F901E656FF4FC491CC23A1F081114E
:100260000E94F400EC2FF0E0EE0FFF1FEA57FF4F63
:10027000A591B491EC91ED2381E090E009F480E048
:10028000DF91CF91089580E090E0FACF1F93CF9354
:10029000DF93282F30E0F901EE58FF4F8491F901E8
:1002A000E255FF4FD491F901E656FF4FC491CC239C
:1002B000A9F0162F81110E94F400EC2FF0E0EE0F50
:1002C000FF1FE057FF4FA591B4918FB7F894EC91C1
:1002D000111108C0D095DE23DC938FBFDF91CF9141
:1002E0001F910895DE2BF8CFCF93DF9390E0FC01B0
:1002F000E255FF4F249186569F4FFC01849188233D
:10030000D1F090E0880F991FFC01E859FF4FA591AB
:10031000B491FC01E057FF4FC591D49161110EC01B
:100320009FB7F8948C91E22FE0958E238C932881CF
:10033000E223E8839FBFDF91CF9108958FB7F894B0
:10034000EC91E22BEC938FBFF6CFCF93DF93EC01D0
:1003500061E085E00E947401209731F460E085E05F
:10036000DF91CF910C944601CF3FD10511F461E0AC
:10037000F6CFE7E7F0E0E491E33029F140F4E13033
:10038000B1F0E230D9F0C038D1058CF7E7CFE730D3
:1003900021F1E83051F1E430B1F7809180008062C2
:1003A00080938000D0938B00C0938A0004C084B5F2
:1003B000806884BDC7BDDF91CF91089584B5806208
:1003C00084BDC8BDF8CF8091800080688093800094
:1003D000D0938900C0938800EECF8091B0008068F0
:1003E0008093B000C093B300E6CF8091B0008062EC
:1003F0008093B000C093B400DECF3FB7F8948091F3
:10040000B6029091B702A091B802B091B90226B598
:10041000A89B05C02F3F19F00196A11DB11D3FBF3C
:10042000BA2FA92F982F8827BC01CD01620F711D0B
:10043000811D911D42E0660F771F881F991F4A9505
:10044000D1F708958F929F92AF92BF92CF92DF9291
:10045000EF92FF924B015C010E94FD016B017C0158
:100460000E94FD016C197D098E099F09683E734049
:1004700081059105A8F321E0821A9108A108B1082D
:1004800088EEC80E83E0D81EE11CF11C8114910493
:10049000A104B10429F7FF90EF90DF90CF90BF90B7
:1004A000AF909F908F900895AF92BF92CF92DF92BE
:1004B000EF92FF920F931F93CF93DF936C017B0119
:1004C0008B01040F151FEB015E01AE18BF08C017AA
:1004D000D10759F06991D601ED91FC910190F0811D
:1004E000E02DC6010995892B79F7C501DF91CF91E0
:1004F0001F910F91FF90EF90DF90CF90BF90AF9042
:100500000895FC01538D448D252F30E0842F90E019
:10051000821B930B541710F0CF96089501970895FE
:10052000FC01918D828D981761F0A28DAE0FBF2FC7
:10053000B11D5D968C91928D9F5F9F73928F90E01D
:1005400008958FEF9FEF0895FC01918D828D98178C
:1005500031F0828DE80FF11D858D90E008958FEFC9
:100560009FEF0895FC01918D228D892F90E0805C92
:100570009F4F821B91098F739927089582EC92E017
:100580000E94B20221E0892B09F420E0822F089515
:1005900080E090E0892B29F00E94BE0281110C942A
:1005A00000000895FC01A48DA80FB92FB11DA35A16
:1005B000BF4F2C91848D90E001968F739927848F83
:1005C000A689B7892C93A089B1898C9183708064A6
:1005D0008C93938D848D981306C00288F389E02D47
:1005E00080818F7D80830895EF92FF920F931F93F8
:1005F000CF93DF93EC0181E0888F9B8D8C8D9813D6
:100600001AC0E889F989808185FF15C09FB7F894E1
:10061000EE89FF896083E889F9898081837080642D
:1006200080839FBF81E090E0DF91CF911F910F9178
:10063000FF90EF900895F62E0B8D10E00F5F1F4F87
:100640000F731127E02E8C8D8E110CC00FB607FC96
:10065000FACFE889F989808185FFF5CFCE010E9424
:10066000D202F1CFEB8DEC0FFD2FF11DE35AFF4FBE
:10067000F0829FB7F8940B8FEA89FB8980818062B2
:10068000CFCFCF93DF93EC01888D8823B9F0AA896F
:10069000BB89E889F9898C9185FD03C0808186FD3D
:1006A0000DC00FB607FCF7CF8C9185FFF2CF80818C
:1006B00085FFEDCFCE010E94D202E9CFDF91CF912D
:1006C00008952091A3023091A4022817390771F4EC
:1006D0009091A1028091A202981741F0E091A102AD
:1006E000F0E0EF59FD4F808190E008958FEF9FEF8C
:1006F00008950895EF92FF920F931F93CF93DF9386
:10070000DC015C96ED90FC905D97E114F10479F4C6
:1007100081E090E013969C938E93129790E080E096
:10072000DF91CF911F910F91FF90EF900895519617
:10073000ED91FC91529750968C915097982F9095EF
:100740000FB75E962C915E97122F127021FD609567
:10075000F8942081112319F1282B2083E701219798
:10076000F1F728E0462F50E0308160FF1AC0382BA7
:100770003083E7012197F1F7BA017595679521500C
:1007800089F7112381F08081892380830FBF5C96D4
:100790008D919C910197F1F781E090E0C1CF2923E1
:1007A000DCCF3923E5CF9081892BEFCF2091A302B5
:1007B0003091A4022817390761F48091A202209198
:1007C000A10290E0805C9F4F821B91098F73992753
:1007D000089590E080E008952091A3023091A40252
:1007E00028173907B9F49091A1028091A2029817B5
:1007F00089F0E091A102F0E0EF59FD4F8081209156
:10080000A10230E02F5F3F4F2F7333272093A102C7
:1008100090E008958FEF9FEF089508952091F001E3
:10082000260F3327331F21323105ECF42091390292
:10083000FC0190E080E0243069F082E00895A0910E
:10084000F0012191AC0140535E4FA40FB52FB11DB3
:100850002C930196861798F38091F001680F6093AE
:10086000F00180E0089581E008951092390281E05E
:10087000809338021092130261E082E10E944601E7
:1008800061E083E10E944601E9EBF0E080818E7F28
:10089000808380818D7F808388E48093B80085E4A5
:1008A0008093BC000895CF93DF9391E09093CF01A4
:1008B0008823B9F0C091B800D091BA008091BC00F3
:1008C0008A7B8093BC0060E082E10E94460160E088
:1008D00083E10E9446010E943504D093BA00C09380
:1008E000B800DF91CF910895E091C1028091C002DC
:1008F000E81730F4F0E0E155FE4F808190E0089574
:100900008FEF9FEF08959091C1028091C0022FEF69
:100910003FEF981748F4E92FF0E0E155FE4F2081B2
:1009200030E09F5F9093C102C90108958091C00299
:100930009091C102891B990B0895CF92DF92EF929B
:10094000FF920F931F93CF93DF937C01CB018A011A
:1009500020913F02222389F0EB016B01C40ED51ECA
:10096000CC15DD0569F06991D701ED91FC910190FD
:10097000F081E02DC7010995F3CF642F0E940E048A
:10098000C801DF91CF911F910F91FF90EF90DF9001
:10099000CF900895CF93DF931F92CDB7DEB76983D1
:1009A00020913F022223F9F02091BE02203258F01C
:1009B00021E030E0FC013383228390E080E00F905F
:1009C000DF91CF9108958091BF02E82FF0E0E05CC5
:1009D000FD4F998190838F5F8093BF028093BE0209
:1009E00081E090E0ECCF61E0CE0101960E940E0420
:1009F000F7CFCF92DF92EF92FF920F931F93CF9397
:100A0000DF93FC01C48121E020933F02C093600288
:100A10001092BF021092BE028385682B8FE593E08F
:100A20000E94CA04D091BE02D13208F092C00E9446
:100A3000FD016B017C0180913902811165C082E06A
:100A40008093390281E0809338028FEF80933702E0
:100A500010923602D0933502A0E4B2E0E5E1F2E074
:100A600080E0D81385C01092140280911402CC0F3C
:100A7000C82BC093140280911302813009F07CC00E
:100A8000109213020E94FD016B017C0180911402FF
:100A90008093BB0080913B0290913C02A0913D026B
:100AA000B0913E02892B8A2B8B2B99F00E94FD017D
:100AB00000913B0210913C0220913D0230913E0298
:100AC0006C197D098E099F09061717072807390732
:100AD000E0F18091BC0083FDD9CF85EC8093BC0010
:100AE0000E94FD016B017C0180913902823009F482
:100AF00045C0809137028F3F61F18091370280328B
:100B000041F18091370225C080913B0290913C02D7
:100B1000A0913D02B0913E02892B8A2B8B2B09F4C8
:100B20008ACF0E94FD0100913B0210913C0220916E
:100B30003D0230913E026C197D098E099F0906170E
:100B400017072807390708F076CF80913A020E94EC
:100B500053041092BF021092BE0210923F02DF9126
:100B6000CF911F910F91FF90EF90DF90CF9008955C
:100B70009D9191938F5F75CF85EEB0CF80913B02B1
:100B800090913C02A0913D02B0913E02892B8A2BAC
:100B90008B2B09F4A9CF0E94FD0100913B0210911B
:100BA0003C0220913D0230913E026C197D098E0974
:100BB0009F09061717072807390708F095CFC5CFF3
:100BC00090E080E0089560E089E00E94460160E0E6
:100BD00088E00E94460160E087E00E94460160E0F4
:100BE00086E00C9446010F931F93CF938C01C62F80
:100BF0000E94F9046C2F6460C8010E94F9046C2FF4
:100C00006B7FC8010E94F90483EC90E00197F1F733
:100C1000CF911F910F9108950F931F93CF93DF935F
:100C20008C01D62FC42F607F642B0E94F30580E1D6
:100C3000D89FB00111246C2BC801DF91CF911F9177
:100C40000F910C94F30540E061E08FEA93E00E947D
:100C50000C068BE39FE10197F1F70895CF93DF93A3
:100C6000CDB7DEB728970FB6F894DEBF0FBECDBF65
:100C700098E0E2E0F1E0DE01119601900D929A9584
:100C8000E1F79091B703961708F46FEF262F30E045
:100C9000220F331F41E050E04C0F5D1F240F351F22
:100CA000F9016081680F606840E08FEA93E0289660
:100CB0000FB6F894DEBF0FBECDBFDF91CF910C947D
:100CC0000C06CF93DF931092C1021092C0021092D3
:100CD000BF021092BE020E9435048DE890E090930E
:100CE000BD028093BC028EE890E09093BB0280939B
:100CF000BA021092B4038091B903823018F098E0E0
:100D00009093B4038093B70362E370E080E090E0D7
:100D10000E9422026091BA038FEA93E00E94F904D4
:100D200068EE73E080E090E00E94220260E38FEAC8
:100D300093E00E94F305CBE4D6E4CE010197F1F7EE
:100D400060E38FEA93E00E94F3052197F1F760E3F7
:100D50008FEA93E00E94F30583E592E00197F1F7B3
:100D600060E28FEA93E00E94F3056091B403606251
:100D700040E08FEA93E00E940C0684E08093B50384
:100D800040E06CE08FEA93E00E940C060E9423068C
:100D900082E08093B60340E066E08FEA93E00E9431
:100DA0000C0640E062E08FEA93E00E940C068BE3C1
:100DB0009FE10197F1F7DF91CF91089541E00E9403
:100DC0000C0681E090E00895FB0101900020E9F716
:100DD0003197AF01461B570BDC01ED91FC9102806E
:100DE000F381E02D09948F929F92AF92BF92CF92A0
:100DF000DF92EF92FF92CF93DF93CDB7DEB7A1974B
:100E00000FB6F894DEBF0FBECDBF6C01990FEE0890
:100E1000FF08F7FE40C041E06DE28FEA93E00E94D8
:100E20000C0622273327A9012C193D094E095F0919
:100E300019A2CE0181967C019AE0892E912CA12CD9
:100E4000B12CCA01B901A50194010E943C0F605D5B
:100E5000F70162937F01211531054105510589F79D
:100E600090E080E0309729F0BF018FEA93E00E9484
:100E7000E4060196A1960FB6F894DEBF0FBECDBF73
:100E8000DF91CF91FF90EF90DF90CF90BF90AF9028
:100E90009F908F900895A701960119A2CE01819687
:100EA0007C018AE0882E912CA12CB12CCA01B901B9
:100EB000A50194010E943C0F605DF70162937F01E0
:100EC000211531054105510589F790E080E0309703
:100ED00089F2BF018FEA93E00E94E406CBCF6CE475
:100EE00071E080E993E00E94E40666E571E080E944
:100EF00093E00E94E40664EF71E080E090E00E94DD
:100F0000220269E571E080E993E00E94E40666E56B
:100F100071E080E993E00E94E40664EF71E080E014
:100F200090E00E94220262E771E080E993E00E9473
:100F3000E40664EF71E080E090E00E9422026AE142
:100F400080E993E00C947A0385ED8093BC00809156
:100F50003B0290913C02A0913D02B0913E02079667
:100F6000A11DB11D23E0B695A795979587952A9564
:100F7000D1F72091BC0024FD03C0109239020895DE
:100F800040913B0250913C0260913D0270913E02C3
:100F9000452B462B472B69F30097A105B10541F07E
:100FA0002AE22A95F1F700C00197A109B109E1CF22
:100FB00080913A020C9453041F920F920FB60F9235
:100FC00011242F933F938F939F93AF93BF9380915F
:100FD000B2029091B302A091B402B091B5023091E7
:100FE000B10223E0230F2D3758F50196A11DB11D45
:100FF0002093B1028093B2029093B302A093B40203
:10100000B093B5028091B6029091B702A091B80258
:10101000B091B9020196A11DB11D8093B6029093C3
:10102000B702A093B802B093B902BF91AF919F915C
:101030008F913F912F910F900FBE0F901F90189599
:1010400026E8230F0296A11DB11DD2CF1F920F9249
:101050000FB60F9211242F933F934F935F936F938B
:101060007F938F939F93AF93BF93EF93FF9382EC04
:1010700092E00E94D202FF91EF91BF91AF919F91B8
:101080008F917F916F915F914F913F912F910F9031
:101090000FBE0F901F9018951F920F920FB60F92D0
:1010A00011242F938F939F93EF93FF93E091D2029C
:1010B000F091D3028081E091D802F091D90282FDB3
:1010C0001BC090818091DB028F5F8F732091DC02C7
:1010D000821741F0E091DB02F0E0EE53FD4F958F77
:1010E0008093DB02FF91EF919F918F912F910F9051
:1010F0000FBE0F901F9018958081F4CF1F920F9212
:101100000FB60F9211242F933F934F935F936F93DA
:101110007F938F939F93AF93BF93EF93FF93E09150
:10112000A302F091A402309749F0A685B785858582
:10113000968D91FF14C09C918923A1F4FF91EF91AA
:10114000BF91AF919F918F917F916F915F914F91DF
:101150003F912F910F900FBE0F901F9018959C916B
:10116000892361F7A389B4899C9185898095892316
:101170008C93868997890197F1F7608D718DA6858B
:10118000B785558538E020E0CB010197F1F7822F34
:1011900090E095958795282F4C91452309F020687C
:1011A000315091F7868D81FD20958091A20290E0CB
:1011B00001968F7399273091A102381799F0A09169
:1011C000A202B0E0AF59BD4F2C938093A202828D52
:1011D000938D0197F1F7A389B4898C919589892B17
:1011E0008C93ACCF868D8160868FF1CF1F920F924A
:1011F0000FB60F9211242F933F934F935F936F93EA
:101200007F938F939F93AF93BF93EF93FF938091BF
:10121000B900887F803609F44AC0F0F5883209F4B5
:10122000A7C018F5803109F49BC0B8F4882309F4ED
:10123000F9C0883009F494C0FF91EF91BF91AF914C
:101240009F918F917F916F915F914F913F912F91DE
:101250000F900FBE0F901F901895883109F488C029
:10126000803251F78093370214C0803409F49DC056
:1012700040F48033B9F38833F9F68093370285EC74
:10128000B0C0803509F485C0883509F496C088342B
:1012900099F60E94A407D0CF883909F48CC038F59C
:1012A000883729F050F4883611F0803729F683E02A
:1012B000809339021092120257C0883809F47BC01B
:1012C000803919F0803809F0B7CF8091120280324E
:1012D00008F071C0E091120281E08E0F809312023B
:1012E0008091BB00F0E0EE50FE4F80833DC0803B1C
:1012F00039F0E0F4803A09F479C0883A09F09CCFDB
:1013000084E0809339021092F1011092F001E09193
:10131000BC02F091BD0209958091F00181110FC0CE
:1013200081E08093F0011092D00109C0803C09F463
:10133000A6CF883C09F4A3CF883B09F07DCFE0918C
:10134000F10181E08E0F8093F101F0E0E053FE4F58
:1013500080818093BB009091F1018091F00129C0C0
:10136000809114028093BB0085EC8093BC0064CF15
:101370009091360280913502981758F5E091360227
:1013800081E08E0F80933602F0E0EB5EFD4F8081AE
:10139000E9CFE091360281E08E0F80933602809192
:1013A000BB00F0E0EB5EFD4F8083909136028091B0
:1013B00035029817C8F285E8D8CFE091360281E06F
:1013C0008E0F809336028091BB00F0E0EB5EFD4F04
:1013D00080838091380281115CCF81E08093130279
:1013E00084EA8093BC001092390226CF85EC80936A
:1013F000BC001092390280911202803230F4E091E8
:101400001202F0E0EE50FE4F10826091120270E086
:10141000E091BA02F091BB0282EF91E0099510923F
:1014200012020ACF1092370234CF1F920F920FB6DA
:101430000F9211242F933F934F935F936F937F935A
:101440008F939F93AF93BF93CF93DF93EF93FF93CC
:101450008091AE01C0918F03D0E087FF24C010922D
:101460008500109284008091AE018F5F8093AE0161
:101470008091AE01082E000C990B8C179D0724F467
:101480008091AE018C30C4F18091840090918500F0
:10149000049680349C4908F47AC08091840090912D
:1014A0008500049676C08091AE01082E000C990B41
:1014B0008C179D07C4F6E091AE018E2FEE0F990BAD
:1014C000FC01EE0FFF1FE80FF91FE559FC4F80816B
:1014D00086FFC9CFE091AE018E2FEE0F990BFC0174
:1014E000EE0FFF1FE80FF91FE559FC4F808160E008
:1014F0008F730E944601B7CF209184003091850000
:10150000E091AE018E2FEE0F990BFC01EE0FFF1F45
:10151000E80FF91FE559FC4F81819281820F931FDB
:101520009093890080938800E091AE018E2FEE0F9A
:10153000990BFC01EE0FFF1FE80FF91FE559FC4F57
:10154000808186FF11C0E091AE018E2FEE0F990BC6
:10155000FC01EE0FFF1FE80FF91FE559FC4F8081DA
:1015600061E08F730E944601FF91EF91DF91CF916F
:10157000BF91AF919F918F917F916F915F914F91AB
:101580003F912F910F900FBE0F901F90189580E400
:101590009CE990938900809388008FEF8093AE013F
:1015A000E3CF1092C5021092C40288EE93E0A0E04F
:1015B000B0E08093C6029093C702A093C802B09394
:1015C000C9022EE031E03093C3022093C20225EC21
:1015D00030E03093CF022093CE0224EC30E0309301
:1015E000D1022093D00220EC30E03093D30220933C
:1015F000D20221EC30E03093D5022093D40222ECC9
:1016000030E03093D7022093D60226EC30E03093BE
:10161000D9022093D8021092DB021092DC021092C1
:10162000DD021092DE021092620310926103809339
:10163000630390936403A0936503B093660380E211
:1016400091E09093600380935F0380918F038C30CF
:1016500008F094C091E0980F90938F038093BB03A0
:1016600090E0FC01EE0FFF1FE80FF91FE559FC4F5A
:1016700088EB9BE0928381831092B2031092B103B6
:1016800084E491E09093B0038093AF0380E2809371
:10169000B30380E18093B80382E08093B903109292
:1016A000BA03109293031092920388EE93E0A0E0A5
:1016B000B0E08093940390939503A0939603B09326
:1016C000970382E391E090939103809390031092AB
:1016D000A7031092A6031092A9031092A8031092D8
:1016E000AB031092AA031092AD031092AC03609169
:1016F000AE036E7F6D7F6093AE036695617081E08F
:10170000682782E00E94460161E082E00E94740145
:10171000E0EBF0E0E491E093A003ECE9F0E0E49189
:10172000F0E0EE0FFF1FE057FF4F859194919093EB
:10173000A2038093A10360E083E00E947401809182
:10174000AE0381FD04C061E083E00E94460183E0B6
:1017500080939C03E1EBF0E0E491E0939D03EDE9DD
:10176000F0E0E491F0E0EE0FFF1FEA57FF4F8591A4
:10177000949190939F0380939E0308958FEF80939D
:10178000BB037ACF789484B5826084BD84B58160D0
:1017900084BD85B5826085BD85B5816085BD80913C
:1017A0006E00816080936E001092810080918100B4
:1017B00082608093810080918100816080938100AC
:1017C000809180008160809380008091B10084606E
:1017D0008093B1008091B00081608093B0008091CF
:1017E0007A00846080937A0080917A00826080938E
:1017F0007A0080917A00816080937A0080917A00EB
:10180000806880937A001092C100E091D202F0913A
:10181000D30282E08083E091CE02F091CF02108269
:10182000E091D002F091D1028FEC80831092DA0225
:10183000E091D602F091D70286E08083E091D40255
:10184000F091D502808180618083E091D402F09193
:10185000D502808188608083E091D402F091D50226
:10186000808180688083E091D402F091D5028081EC
:101870008F7D80831092AB031092AA031092A9036C
:101880001092A8031092A7031092A6038DE991E08D
:101890009093AD038093AC0390919C03963108F034
:1018A00047C02DEB30E03093A7032093A6032BE92C
:1018B00031E03093A9032093A8032CE231E0309368
:1018C000AB032093AA032091680084E0983048F08D
:1018D00031E09E3008F430E081E001C0880F3A9595
:1018E000EAF7822B809368002DE630E0983050F0C4
:1018F0002BE630E09E3030F02CE630E0963110F0F0
:1019000030E020E03093A4032093A303292F30E09C
:10191000983008F024C281E001C0880F9A95EAF758
:101920008093A5038091AC039091AD030197F1F7EB
:101930008091AA039091AB03892B49F1E091A30216
:10194000F091A40223E0E039F20709F1309739F071
:10195000A389B4899C918589809589238C938091F2
:10196000AE038E7F8093AE031092A2021092A1026A
:1019700080E993E09093A4028093A302E091A303F3
:10198000F091A40380819091A503892B808380919D
:10199000BB038C3008F051C061E08AE00E94740102
:1019A0008091BB03282F30E0F901EE0FFF1FE20FFB
:1019B000F31FE559FC4F9081907C9A6090831092C0
:1019C000BC031092BD032CE0622F0E946D0F829F1A
:1019D000B001112430E020E0AB01420F531FFA01A7
:1019E000EE0FFF1FE40FF51FE559FC4F908196FDA8
:1019F00016C02F5F3F4F2C30310571F781110FC09A
:101A00001092800082E080938100109285001092F5
:101A10008400B19A80916F00826080936F00E091A2
:101A2000BB038E2F90E0FC01EE0FFF1FE80FF91FA4
:101A3000E559FC4F8081806480838AE590E00E94B4
:101A40008F0061E089E00E94740161E088E00E94FB
:101A5000740161E087E00E94740161E086E00E9409
:101A6000740161E085E00E94740161E08DE00E94F4
:101A7000740161E084E00E94740160E080E10E94F2
:101A8000740160E08FE00E94740160E08EE00E94CB
:101A9000740160E081E10E9474010E9461060E946D
:101AA000610688E08093BA0360E08FEA93E00E94C9
:101AB000F90460E083E00E942E066AE871E08FEA94
:101AC00093E00E94E40668EE73E080E090E00E94FC
:101AD00022020E942306C0E0D0E082EC92E00E9445
:101AE000B2021816190634F482EC92E00E949002B9
:101AF0008093010180910101853709F03DC180EAA1
:101B000090E00E94A50161E089E00E94460160E04A
:101B100088E00E94460161E087E00E94460160E0A3
:101B200086E00E9446012FB7F8948091B20290910E
:101B3000B302A091B402B091B5022FBF4091A502AB
:101B40005091A6026091A7027091A802841B950B88
:101B5000A60BB70B883E9340A105B10508F454C00D
:101B60002FB7F8948091B2029091B302A091B40281
:101B7000B091B5022FBF8093A5029093A602A093C7
:101B8000A702B093A8020E94230660E080E00E94B2
:101B90002E0665E971E08FEA93E00E94E40660E0BA
:101BA00085E00E942E0690E080E00E94F3066FED33
:101BB0008FEA93E00E94DE0660E08AE00E942E0633
:101BC0006BE971E08FEA93E00E94E4068091A9023C
:101BD0009091AA020E94F30661E080E00E942E0626
:101BE00060EA71E08FEA93E00E94E40661E08AE037
:101BF0000E942E0690E080E00E94F3066AEA71E0FF
:101C00008FEA93E00E94E4068EE00E941D0190930B
:101C1000AE028093AD028FE00E941D018C01909373
:101C2000B0028093AF0280E10E941D019093AC024C
:101C30008093AB0281E10E941D019093AA028093E0
:101C4000A902012BE1F40E94E30561E08DE00E940E
:101C500046018AE590E00E948F0061E084E00E94E6
:101C6000460180910001882321F00E946F071092A5
:101C7000000168EE73E080E090E00E942202809113
:101C8000AD029091AE02892BE1F40E94E3058AE057
:101C900090E00E948F0061E08DE00E94460161E0CB
:101CA00084E00E94460180910001882321F00E9477
:101CB0006F071092000168EE73E080E090E00E94F0
:101CC00022028091AB029091AC02892BE1F40E9438
:101CD000E30561E08DE00E94460184EB90E00E9404
:101CE0008F0061E084E00E9446018091000188231A
:101CF00021F00E946F071092000168EE73E080E00F
:101D000090E00E9422028091AF029091B002019770
:101D1000D9F48091AD029091AE020197A9F480911F
:101D2000AB029091AC02019779F460E08DE00E94E3
:101D3000460160E084E00E9446018091000181112B
:101D400003C081E080930001209709F4C6CE0E9471
:101D5000BE02882309F4C1CE0E940000BECE9E3090
:101D600040F42850310981E001C0880F2A95EAF734
:101D7000D7CD2E503109F7CF823751F480EA90E069
:101D80000E94A50160E089E00E94460161E0C0CEAA
:101D9000843691F480EA90E00E94A50160E089E039
:101DA0000E94460161E088E00E94460160E087E011
:101DB0000E94460161E0B4CE8C3651F480EA90E096
:101DC0000E94A50161E089E00E94460160E0EBCF3E
:101DD000833709F0A8CE0E94E305A5CE82E391E007
:101DE00090939103809390038091A3029091A40219
:101DF0008059934071F4E091A303F091A403908182
:101E00008091A5038095892380831092A40210926B
:101E1000A3020895052E97FB1EF400940E94210F43
:101E200057FD07D00E943C0F07FC03D04EF40C94E2
:101E3000210F50954095309521953F4F4F4F5F4F63
:101E4000089590958095709561957F4F8F4F9F4F26
:101E500008950E945E0FA59F900DB49F900DA49FC2
:101E6000800D911D11240895B7FF0C94290F0E9435
:101E7000290F821B930B0895A1E21A2EAA1BBB1BEC
:101E8000FD010DC0AA1FBB1FEE1FFF1FA217B30746
:101E9000E407F50720F0A21BB30BE40BF50B661F5C
:101EA000771F881F991F1A9469F760957095809520
:101EB00090959B01AC01BD01CF010895A29FB00197
:101EC000B39FC001A39F700D811D1124911DB29F6E
:101ED000700D811D1124911D0895991B79E004C096
:101EE000991F961708F0961B881F7A95C9F7809559
:101EF0000895EE0FFF1F0590F491E02D099410E076
:101F0000C2E6D0E004C0FE010E94790F2196C336DC
:101F1000D107C9F7F894FFCF017A00004000140000
:101F2000540000000000F402540281024103B20296
:101F30009002A40200000000CA049D04E005790399
:101F4000960483047404000000007A035402E00540
:101F50007903D603EC03610300000000DE0654029F
:101F6000E0050D0441542B434D47463D31000D0A19
:101F70000041542B434D47533D222B3230313039F1
:101F800033393738363138220D005761726E696E39
:101F900067212046697265206465746563746564B1
:101FA00021004649524520545255434B0054656D1B
:101FB000703A004741533A0048756D696469747915
:061FC0003A00202500009C
:107E0000112484B714BE81FFF0D085E080938100F7
:107E100082E08093C00088E18093C10086E0809377
:107E2000C20080E18093C4008EE0C9D0259A86E02C
:107E300020E33CEF91E0309385002093840096BBD3
:107E4000B09BFECF1D9AA8958150A9F7CC24DD24C4
:107E500088248394B5E0AB2EA1E19A2EF3E0BF2EE7
:107E6000A2D0813461F49FD0082FAFD0023811F036
:107E7000013811F484E001C083E08DD089C08234E0
:107E800011F484E103C0853419F485E0A6D080C0E4
:107E9000853579F488D0E82EFF2485D0082F10E0AE
:107EA000102F00270E291F29000F111F8ED06801E7
:107EB0006FC0863521F484E090D080E0DECF843638
:107EC00009F040C070D06FD0082F6DD080E0C81688
:107ED00080E7D80618F4F601B7BEE895C0E0D1E017
:107EE00062D089930C17E1F7F0E0CF16F0E7DF06D8
:107EF00018F0F601B7BEE89568D007B600FCFDCFD4
:107F0000A601A0E0B1E02C9130E011968C91119780
:107F100090E0982F8827822B932B1296FA010C0160
:107F200087BEE89511244E5F5F4FF1E0A038BF0790
:107F300051F7F601A7BEE89507B600FCFDCF97BE46
:107F4000E89526C08437B1F42ED02DD0F82E2BD052
:107F50003CD0F601EF2C8F010F5F1F4F84911BD097
:107F6000EA94F801C1F70894C11CD11CFA94CF0C13
:107F7000D11C0EC0853739F428D08EE10CD085E9AC
:107F80000AD08FE07ACF813511F488E018D01DD067
:107F900080E101D065CF982F8091C00085FFFCCF94
:107FA0009093C60008958091C00087FFFCCF809118
:107FB000C00084FD01C0A8958091C6000895E0E648
:107FC000F0E098E1908380830895EDDF803219F02E
:107FD00088E0F5DFFFCF84E1DECF1F93182FE3DFCA
:107FE0001150E9F7F2DF1F91089580E0E8DFEE27F6
:047FF000FF270994CA
:027FFE00040479
:00000001FF
